:2000000043C1000072C1000070C100006EC100006CC100006AC1000068C1000066C10000A1
:2000200064C100000C94C42E0C94C42E0C94C42E5CC100005AC1000058C1000056C100007D
:2000400054C100000C94EE3050C100004EC100004CC100004AC1000048C100000C947A2E44
:2000600044C100000C94502E0C94262E3EC100003CC100003AC1000038C1000036C1000082
:200080000C94C03032C1000030C100002EC100000C94FC2D0C94D22D28C100000C94402F9D
:2000A00024C1000022C100000C9492301EC100001CC100001AC1000018C100000C94643072
:2000C00014C1000012C1000010C100000C94A82D0C947E2D0AC100000C94542D0C942A2D04
:2000E00004C1000007634236B79BD8A71A39685618AEBAAB558C1D3CB7CC5763BD6DEDFDC1
:20010000753EF6177231BF000000803F08000000BE922449123EABAAAA2ABECDCCCC4C3E13
:2001200000000080BEABAAAAAA3E00000000BF000000803F0000000000084178D3BB438703
:20014000D1133D190E3CC3BD4282AD2B3E68EC8276BED98FE1A93E4C80EFFFBE01C4FF7FCC
:200160003F000000000000002100240027002A002D003000330001010000040107010A0100
:2001800000000A0B02090C0D0E080703040100000000000000000000000000000000000001
:2001A00000000000000000000000000012111000000000000000000000000000000000000C
:2001C000000000000000000020002300260029002C002F00320000010000030106010901EA
:2001E00000002200250028002B002E003100340002010000050108010B0105050505070594
:2002000008080808020202020A0A0808040404040101010101010101030303030303030362
:20022000040707070C0C0C0C0C0C0C0C0202020206060606060606060B0B0B0B0B0B0B0BB5
:20024000010210202008081020401020408002010201080402010102040810204080804007
:200260002010080402018004020180402010080402010804020101020408102040800102A8
:20028000040810204080813111241FBECFEFD1E2DEBFCDBF00E00CBF14E0A0E0B2E0E4ED82
:2002A000F3E800E00BBF02C007900D92A631B107D9F72EE0A6E1B4E001C01D92A034B2073C
:2002C000E1F711E0C4E4D1E000E006C021970109802FFE010E948C40C334D10780E008073A
:2002E000A9F70E94F1320C94E8418ACEA0913708B0913808ED91FC9111970190F081E02DC5
:20030000682FCD011994282F30E0D901AE57B74F9C919F3781F0220F331FF901E853F74F0D
:20032000118210826C93E0915D09F0915E09309711F070E01994089581E080935409109205
:200340003C0810923D0810923E08EFE3F8E0119288E0EF37F807D9F710927F08109281088C
:2003600010928008E0916109F0916209309709F01995109254090895CF93DF93C7E3D8E04C
:2003800088819981DC01ED91FC910190F081E02D69EF199588819981DC01ED91FC910190A1
:2003A000F081E02D62E0199588819981DC01ED91FC910190F081E02D66E0DF91CF911994F2
:2003C0008091370890913808DC01ED91FC910190F081E02D60EF19940F931F93CF93DF9351
:2003E000EC0107E318E0D8018D919C916C2F6F77DC01ED91FC910190F081E02D1995F801EB
:2004000080819181CC0FCD2FCC1FDD0B6C2F6F77DC01ED91FC910190F081E02DDF91CF91D7
:200420001F910F9119948091370890913808DC01ED91FC910190F081E02D67EF1994CF93B2
:20044000DF93BEDF8091370890913808DC01ED91FC910190F081E02D69E719958091370897
:2004600090913808A0913A08B0913B08EC01E881F9810190F081E02D6C911995809137084A
:2004800090913808A0913A08B0913B08EC01E881F9810190F081E02D11966C911995C2E031
:2004A00080913908C81758F4E0913A08F0913B08EC0FF11D808190E08FDFCF5FF1CFDF9102
:2004C000CF91B1CFCF93DF9390917F08992309F46BC0873F09F057C010927F0880913F0885
:2004E000813759F0893709F040C080913908882309F457C0DF91CF91A2CFE0916309F09192
:200500006409309709F44DC02091800830918108C901019797FDC90195958795582FC7E3E3
:20052000D8E0DE0130E022961196351770F44F8117964C9317972885279522272795240F5A
:2005400017962C9317973F5FEECF9927DC01A95CB74F17968C911797882311F018961C92FE
:200560008FE398E0DF91CF911994E0916509F09166093097B1F060918008615040E458E057
:20058000DF91CF9119942091800830918108F901E95CF74F80872F5F3F4F309381082093B4
:2005A0008008DF91CF91089590913C08992309F45BC087FD59C0915090933C08E92FF0E040
:2005C000E95CF74F80879111ECCF80913D08882341F3803D09F43EC058F4803919F1E091BF
:2005E0005909F0915A09803CC9F110923D08D9CF843FE9F0853F09F1E0915509F0915609A7
:20060000803E99F7309789F360913F0820E8629FC001112460914008680F792F711D80911B
:200620003E0816C0E0915709F0915809EBCF60913F088091400867DED8CFE0915F09F0915A
:20064000600960913F0870E080914008309769F21995CBCFE0915B09F0915C09309729F249
:2006600060913F0870E0DBCF282F30E0803F28F4207F30E08F7080933E08203F310549F130
:20068000ACF4203C310519F154F42039310509F088CF82E080933C0820933D0882CF203D98
:2006A0003105A9F0203E3105A1F37BCF293F3105C1F034F4C901845F9109029750F371CF1F
:2006C0002F3F310509F06DCFDF91CF9135CE81E0E1CF81E080937F0810928108109280080D
:2006E00060CFDF91CF9148CECF92DF92EF92FF92CF93DF93EC016A017B01E889F98982E004
:200700008083C11481EED806E104F104A1F060E079E08DE390E0A70196010E94643C2150DE
:200720003109410951095695479537952795211580E1380798F0E889F989108260E874E805
:200740008EE190E0A70196010E94643C21503109410951095695479537952795EC85FD85A8
:200760003083EE85FF852083188EEC89FD8986E08083EA89FB89808180618083EA89FB894F
:20078000808188608083EA89FB89808180688083EA89FB8980818F7D8083DF91CF91FF9024
:2007A000EF90DF90CF900895E0919C09EE3058F421E02E0F20939C09F0E0EE0FFF1FE05816
:2007C000F64F918380830895FF920F931F93CF93DF93C82F062FF42E152FF2DD80913708B6
:2007E00090913808DC01ED91FC910190F081E02D6C2F1995CF2DD12F0C0F1D2F111DC017F0
:20080000D10721F0899190E0E7DDF9CFDF91CF911F910F91FF9007CE982F2091AB0581E0CC
:20082000213208F043C0809187058111FCCF8091AA0532E030938705909386059FEF9093F0
:2008400085051092840520938305AAE8B5E0E3E6F5E090E0291331C01092620590916205B5
:20086000880F892B8093620580916105813049F510926105809162058093BB008091BC0032
:2008800083FDF8CF85EC8093BC00809187058230E1F3809185058F3FB1F080918505803257
:2008A000A1F080918505803391F084E0109289051092AB051092880508953D9131939F5F96
:2008C000C9CF85EEE0CF80E0F1CF82E0EFCF83E0EDCFCF93DF93EB01A0913708B09138084E
:2008E0008F70682F606EED91FC9111970190F081E02DCD011995CE01DF91CF916DCD80916C
:200900002D0890912E08181619061CF480912C08EDCC0895CF93DF9320912D0830912E08A2
:20092000C82FD0E02115310591F48F77DFDC80912D0890912E08019690932E0880932D0889
:20094000CC0FCD2FCC1FDD0BC0932C0819C0CE0101C0880F2A95EAF78F7790912C08892BB7
:20096000C5DC80912D0890912E088630910559F4CE0195958795BADC10922E0810922D0846
:20098000DF91CF910895019690932E0880932D0828E030E0281B390B02C0D595C7952A95CC
:2009A000E2F7D2CFAF92BF92CF92DF92EF92FF920F931F93CF93DF936C017B015A01EA01F0
:2009C000F0E0E0E007E010E0CE018A199B098C159D05F4F4CF01B8010E947940AC01552762
:2009E000D701A60FB71F11962C911197C801841B950B01C0220F8A95EAF78C9190E002C03F
:200A0000959587954A95E2F7282B29933896DCCFDF91CF911F910F91FF90EF90DF90CF9054
:200A2000BF90AF9008950F931F93CF93DF93182FEB01042F80EF5ADC8BE758DC88E0011138
:200A400001C08AE053DC812F51DC2097B1F010922E0810922D088E010D5F1F4F8F819885C2
:200A60000B9698012C1B3D0B2817390728F4F80181918F014FDFF2CF42DF87EFDF91CF9121
:200A80001F910F9133CCAF92BF92CF92DF92EF92FF920F931F93CF93DF936C017B018B01F4
:200AA000040F151FEB015E01AE18BF08C017D10759F06991D601ED91FC910190F081E02D34
:200AC000C6011995892B79F7C501DF91CF911F910F91FF90EF90DF90CF90BF90AF90089590
:200AE000FC01A089B1898C91A689B78982FD0FC09C91818D8F5F8F73228D821749F0A18DE2
:200B0000AE0FBF2FB11D5D969C93818F08958C910895FC01538D448D252F30E0842F90E09E
:200B2000821B930B541710F0CF96089501970895FC01918D828D981761F0A28DAE0FBF2FD4
:200B4000B11D5D968C91928D9F5F9F73928F90E008958FEF9FEF0895FC01918D828D9817D8
:200B600031F0828DE80FF11D858D90E008958FEF9FEF0895FC01918D228D892F90E0805CAA
:200B80009F4F821B91098F73992708958CEA95E0F1DF21E0892B09F420E0822F089589E4A9
:200BA00096E0E8DF21E0892B09F420E0822F089586EE96E0DFDF21E0892B09F420E0822FED
:200BC000089583E897E0D6DF21E0892B09F420E0822F0895FC01A48DA80FB92FB11DA35A49
:200BE000BF4F2C91848D90E001968F739927848FA689B7892C93A089B1898C9183708064B8
:200C00008C93938D848D981306C00288F389E02D80818F7D80830895EF92FF920F931F93ED
:200C2000CF93DF93EC0181E0888F9B8D8C8D98131AC0E889F989808185FF15C09FB7F89486
:200C4000EE89FF896083E889F98980818370806480839FBF81E090E0DF91CF911F910F9195
:200C6000FF90EF900895F62E0B8D10E00F5F1F4F0F731127E02E8C8D8E110BC00FB607FC2E
:200C8000FACFE889F989808185FFF5CFCE01A2DFF2CFEB8DEC0FFD2FF11DE35AFF4FF08294
:200CA0009FB7F8940B8FEA89FB8980818062D0CFCF93DF93EC01888D8823B1F0AA89BB89A6
:200CC000E889F9898C9185FD03C0808186FD0CC00FB607FCF7CF8C9185FFF2CF808185FFFA
:200CE000EDCFCE0177DFEACFDF91CF91089580E090E0892B21F065DF81110E94000080E080
:200D000090E0892B21F054DF81110E94000080E090E0892B21F043DF81110E94000080E0EC
:200D200090E0892B21F032DF81110C94000008958150823108F05AC0E82FF0E08827EC5531
:200D4000F94F8F4F0C948C40C406C806B606BC06C006F606CB06D106D506DB06DF06E306F7
:200D6000E906ED06F606F106F706FB06809180008F77809380000895809180008F7DF9CF74
:200D800080918000877FF5CF84B58F7784BD089584B58F7DFBCF8091B0008F778093B00042
:200DA00008958091B0008F7DF9CF809190008F77809390000895809190008F7DF9CF809194
:200DC0009000877FF5CF8091A0008F778093A00008958091A0008F7DF9CF8091A000877F76
:200DE000F5CF809120018F77809320010895809120018F7DF9CF80912001877FF5CFCF93C2
:200E0000DF93282F30E0F901E058FE4F8491F901E05CFD4FD491F901E650FE4FC491CC23BD
:200E200099F0811185DFEC2FF0E0EE0FFF1FEA53FE4FA591B491EC91ED2381E090E009F4CD
:200E400080E0DF91CF91089580E090E0FACF1F93CF93DF93282F30E0F901E058FE4F8491AB
:200E6000F901E05CFD4FD491F901E650FE4FC491CC23A1F0162F81115BDFEC2FF0E0EE0F40
:200E8000FF1FE052FE4FA591B4918FB7F894EC91111108C0D095DE23DC938FBFDF91CF910E
:200EA0001F910895DE2BF8CFCF93DF9390E0FC01E05CFD4F249186509E4FFC018491882317
:200EC000C9F090E0880F991FFC01EA59FE4FA591B491FC01E052FE4FC591D49161110DC01C
:200EE0009FB7F8948C91209582238C938881282328839FBFDF91CF910895623051F49FB783
:200F0000F8943C91822F809583238C93E8812E2BEFCF8FB7F894EC912E2B2C938FBFEACFFF
:200F2000863308F0865320917B00982F9870277F922B90937B008770806480937C008091B0
:200F40007A00806480937A0080917A0086FDFCCF809178009091790008958230910538F09D
:200F6000880F991F880F991F05970197F1F708953FB7F89480915B0590915C05A0915D0512
:200F8000B0915E0526B5A89B05C02F3F19F00196A11DB11D3FBFBA2FA92F982F8827BC013E
:200FA000CD01620F711D811D911D42E0660F771F881F991F4A95D1F708958F929F92AF92B5
:200FC000BF92CF92DF92EF92FF926B017C01D0DF4B015C01C114D104E104F104B1F0C8DFCF
:200FE000681979098A099B09683E73408105910588F321E0C21AD108E108F10888EE880E23
:2010000083E0981EA11CB11CE5CFFF90EF90DF90CF90BF90AF909F908F9008952FB7F894B2
:2010200060915705709158058091590590915A052FBF089520915F053091600528173907D1
:2010400071F49091550580915405981741F0E0915505F0E0EC5EFA4F808190E008958FEFAC
:201060009FEF08950895EF92FF920F931F93CF93DF93DC015C96ED90FC905D97E114F104B8
:2010800079F481E090E013969C938E93129790E080E0DF91CF911F910F91FF90EF900895D5
:2010A0005196ED91FC91529750968C915097982F90950FB75E962C915E97122F127021FD32
:2010C0006095F8942081112319F1282B2083E7012197F1F728E0462F50E0308160FF1AC09B
:2010E000382B3083E7012197F1F7BA0175956795215089F7112381F08081892380830FBF7D
:201100005C968D919C910197F1F781E090E0C1CF2923DCCF3923E5CF9081892BEFCF209176
:201120005F05309160052817390769F4809154052091550590E0805C9F4F821B910960E41F
:2011400070E00C94794090E080E0089520915F053091600528173907B9F490915505809186
:201160005405981789F0E0915505F0E0EC5EFA4F80812091550530E02F5F3F4F2F7333278C
:201180002093550590E008958FEF9FEF0895E0915F05F0916005E817F90769F4A389B4890C
:2011A0009C918589809589238C931092600510925F0581E0089580E00895CF93DF93EC014B
:2011C0008A8D9B8D892BF9F080915F05909160058C179D07C1F0009709F0D9DF8E8D8E7FD0
:2011E0008E8F1092540510925505D0936005C0935F05EB89FC8980819D89892B808381E024
:20120000DF91CF91089580E0FBCF85ED8093BC008091BC0084FDFCCF109287050895209161
:20122000EF04260F3327331F21323105ECF420918705FC0190E080E0243069F082E00895BB
:20124000A091EF042191AC0143535B4FA40FB52FB11D2C930196861798F38091EF04680F6D
:201260006093EF0480E0089581E0089508950895E091CC048091CB04E81730F4F0E0E55505
:20128000FB4F808190E008958FEF9FEF08959091CC048091CB042FEF3FEF981748F4E92F2D
:2012A000F0E0E555FB4F208130E09F5F9093CC04C90108958091CB049091CC04891B990BB8
:2012C0000895CF92DF92EF92FF920F931F93CF93DF937C01CB018A0120918805222389F095
:2012E000EB016B01C40ED51ECC15DD0561F06991D701ED91FC910190F081E02DC70119955B
:20130000F3CF642F8CDFC801DF91CF911F910F91FF90EF90DF90CF900895CF93DF931F9226
:20132000CDB7DEB76983209188052223F9F02091AB05203258F021E030E0FC0133832283D8
:2013400090E080E00F90DF91CF91089580918905E82FF0E0E657FA4F998190838F5F809377
:2013600089058093AB0581E090E0ECCF61E0CE01019655DFF8CF90E080E00895DF92EF928F
:20138000FF920F931F93CF93DF93EC01D62E7A0189018881803308F066C061E08D2D84DD68
:2013A0008881282F30E0F901EE0FFF1FE20FF31FE55EFB4F9D2D9F736081607C692B608308
:2013C00020E232E02E193F0937FF02C02D5F3F4F3595279535952795298320E639E0201B46
:2013E000310B37FF02C02D5F3F4F35952795359527952A832CE0622F0E946D40829FB00128
:20140000112430E020E0AB01420F531FFA01EE0FFF1FE40FF51FE55EFB4F908196FD16C0F4
:201420002F5F3F4F2C30310571F7813029F51092800082E080938100109285001092840062
:20144000B19A80916F00826080936F00E8818E2F90E0FC01EE0FFF1FE80FF91FE55EFB4F13
:201460008081806480838881DF91CF911F910F91FF90EF90DF900895823061F41092900008
:2014800080939100109295001092940088BB80937100DCCF833069F41092A00082E0809302
:2014A000A1001092A5001092A40089BB80937200CDCF8111CBCF1092200182E08093210113
:2014C00010922501109224018ABB80937300BECFAF92BF92CF92DF92EF92FF920F931F935B
:2014E000CF93DF936B017A01EC01C95EDB4F28813CE0389F8001399F100D1124A090160462
:20150000B12C27FF1FC0FB011182108288818F5F888388819801280F311D87FD3A95F60155
:201520002A153B051CF488818C30BCF180819181049680349C4908F471C0F601808191812D
:2015400004966EC088819801280F311D87FD3A952A153B05DCF68881A801480F511D87FDFD
:201560005A95FA01EE0FFF1FE40FF51FE55EFB4F808186FFCBCF8881F801E80FF11D87FD27
:20158000FA95CF01EE0FFF1FE80FF91FE55EFB4F808160E08F735BDCB9CF80819181288177
:2015A000A801420F511D27FD5A959A01FA01EE0FFF1FE20FF31FE55EFB4F21813281820F89
:2015C000931FF7019183808388819801280F311D87FD3A95F901EE0FFF1FE20FF31FE55E75
:2015E000FB4F808186FF21C08881080F111D87FD1A95F801EE0FFF1FE00FF11FE55EFB4F19
:20160000808161E08F73DF91CF911F910F91FF90EF90DF90CF90BF90AF9019CC80E49CE92E
:20162000F701918380838FEF8883DF91CF911F910F91FF90EF90DF90CF90BF90AF900895EB
:20164000DC012C911196ED91FC91F8948181822B81839281322F30959323928387E090E024
:201660000197F1F781818323818383E290E00197F1F790817894EFECF0E03197F1F79223BC
:2016800081E009F480E00895FC0190810180F281E02D292F209560FF14C0F894828182236C
:2016A00082838181892B8183A3E2B0E01197F1F78281982B9283789487ED90E00197F1F77B
:2016C0000895F8948281822382838181892B8183AFEFB0E01197F1F78281982B92837894D5
:2016E0008FE090E0EBCFDF92EF92FF920F931F93CF93DF93EC01D62EE42E08E010E0FF24A8
:20170000F39461E08D2D8F2109F460E0CE01BCDFFF0C01501109A9F7E11010C0F894E98123
:20172000FA8191818881809589238183E981FA81928188818095892382837894DF91CF91AB
:201740001F910F91FF90EF90DF900895FC0190810180F281E02DF8948181292F20958223D0
:20176000818378943DE743E050E0315029F1DA011197F1F780818923C1F3F8948281822347
:2017800082838181892B81837894ABE7B7E01197F1F7F894818182238183A3E1B1E01197D1
:2017A000F1F78081982381E009F080E07894E3E6F6E03197F1F7089580E00895BF92CF9224
:2017C000DF92EF92FF920F931F93CF93DF93EC01B62EC72E142FED84E11003C0B7DF811108
:2017E0000EC01B861D861C8680E0DF91CF911F910F91FF90EF90DF90CF90BF90089540E0CD
:2018000060EF111101C06CEECE016DDFD12C01E011E0CE0115DFF82ECE0112DF91E0F9122D
:2018200018C0813099F51134E0F2EB86E11002C081E08D878B818823A1F22396EB2DFC2D9D
:20184000CF01089629912193E817F907D9F781E0CCCFED2DF0E0F8120FC08B851817A0F44B
:20186000DE01AE0FBF1F13968C91802379F4F12C193008F41C87E12EEC0FFD1F8381902F2A
:201880009095892383830AC08113F1CFFE01ED0DF11D8381802B8383FF24F3946F2DCE0182
:2018A000F3DE1F5F000F11F4D39401E087E08D1508F0AFCFB8CF1F93CF93DF93EC01162FBF
:2018C00060E0812FF1DA612F70E0FB01E05CFD4FE491E883FB01E650FE4FE491F0E0EE0F48
:2018E000FF1FEA53FE4F859194919A8389831B861D861C861A86198618861F821E821D8239
:201900001C821B82DF91CF911F9108951F93CF93DF93EC011A8189859A85AB85BC85113082
:20192000A9F50196A11DB11D89879A87AB87BC874F815885052E000C660B770B841795072A
:20194000A607B70724F019861A861B861C8669857A858B859C8524E030E040E050E00E9462
:20196000383C8981813069F5612F89AD70DA898990E0F3DA60E08AAD6ADA898990E0EDDA77
:2019800061E08AADDF91CF911F9161CA181619061A061B0654F08F819885092E000CAA0B2D
:2019A000BB0B89879A87AB87BC8789859A85AB85BC850197A109B10989879A87AB87BC877B
:2019C000C6CF8230D1F4613079F040F0623071F0633089F0DF91CF911F91089560E08BAD3D
:2019E00036DA61E08CADCECF61E0F9CF61E08BAD2EDA60E0F7CF60E0FACF843059F7613092
:201A0000B1F048F06230C1F0633021F761E08BAD1EDA60E015C061E08BAD19DA60E08CAD94
:201A200016DA61E08DAD13DA60E08EADABCF60E08BAD0DDA61E0F3CF60E08BAD08DA61E05C
:201A40008CAD05DA60E08DAD02DA61E0EECFCF92DF92EF92FF920F93CF93DF93EC01822F22
:201A600019861A861B861C861A82FE01FF96108211821282138258874F831882962F9F7047
:201A8000998362956F7092E009F491E0998B8BAF0CAF89AF0AAF61E007DA61E08CAD04DAF0
:201AA0008981843041F4EDAECEAE61E08E2DFCD961E08EADF9D96F817885072E000C880B3C
:201AC000990B0E94993D9B01AC0160ED7FE089EC90E40E94FE3C6B017C01C9A6DAA6EBA6C7
:201AE000FCA620E034E244E759E40E944D3E20E030E048EC52E40E944D3E0E94663D6DA799
:201B00007EA78FA798AB20E030E44CE956E4C701B6010E944D3E0E94663D69AB7AAB8BAB44
:201B20009CABA7019601C701B6010E94963C6DAB7EAB8FAB98AFDF91CF910F91FF90EF90EC
:201B4000DF90CF900895CF92DF92EF92FF92CF93DF93EC010DDA6B017C0188A599A5AAA5EB
:201B6000BBA5B701A601481B590B6A0B7B0B8CA19DA1AEA1BFA1481759076A077B0748F1DF
:201B80008C859D85AE85BF852A812223F1F00196A11DB11D8C879D87AE87BF874C855D8542
:201BA0006E857F85E881F9810680F781E02DCE011995C8A6D9A6EAA6FBA681E0DF91CF9174
:201BC000FF90EF90DF90CF9008950197A109B109E1CF80E0F3CFCF93DF93FC012381222304
:201BE00029F1EC0161E084815FD961E08D815CD98B81843011F0883091F461E08E8154D961
:201C000061E08F8151D98FA58F3F81F061E04CD96EA581E068278FA5DF91CF9118C98330D5
:201C200011F0863081F761E08E81ECCFDF91CF910895CF93DF93FC012381222399F0EC01CD
:201C40000190F081E02D0480F581E02D60E019958FA58F3F39F061E027D96EA58FA5DF915D
:201C6000CF91F5C8DF91CF910895DC01ED91FC911197248135814770552766277727415000
:201C8000510961097109473051056105710570F4FA018827E15BF14F8F4F0C948C405A0E21
:201CA0005C0E5E0E600E620E640E660E61E0CD01F901199465E0FBCF64E0F9CF66E0F7CFAD
:201CC00062E0F5CF6AE0F3CF68E0F1CF69E0EFCFCF93DF93EC01CB01BA0126E030E040E065
:201CE00050E00E94383C623071058105910589F16CF46115710581059105D1F061307105D0
:201D000081059105F9F0DF91CF910895643071058105910561F124F165307105810591059D
:201D200091F7E881F9810480F581E02D66E006C0E881F9810480F581E02D64E0CE01DF91B8
:201D4000CF911994E881F9810480F581E02D65E0F5CFE881F9810480F581E02D61E0EECF9B
:201D6000E881F9810480F581E02D63E0E7CFE881F9810480F581E02D62E0E0CFDC01ED914A
:201D8000FC910480F581E02D4370552766277727423051056105710571F043305105610521
:201DA000710559F0413051056105710511F065E0199466E0FDCF6AE0FBCF69E0F9CFCF9335
:201DC000DF93EC01CB01BA0123E030E040E050E00E94383C613071058105910599F0623066
:201DE000710581059105A9F0672B682B692BC1F4E881F9810480F581E02D64E0CE01DF91DD
:201E0000CF911994E881F9810480F581E02D61E0F5CFE881F9810480F581E02D62E0EECFDD
:201E2000DF91CF910895DC01ED91FC910480F581E02D4370552766277727423051056105BE
:201E4000710571F0433051056105710559F0413051056105710511F062E0199463E0FDCF1B
:201E600061E0FBCF60E0F9CFCF93DF93EC01E881F9810480F581E02D8A8160E0811162E085
:201E8000CE011995E881F9810480F581E02D8A8161E0811163E0CE0119958CA59DA55DD895
:201EA000E881F9810480F581E02D8A8160E0811162E0CE01DF91CF911994CF93DF93EC010C
:201EC00020E030E0A9016C897D898E899F890E94493E18162CF4E8A9F9A9DF91CF911994E7
:201EE000EAA9FBA9FACFCF92DF92EF92FF920F931F93CF93DF93DC011396CC91C43039F0D6
:201F0000C83059F1C33019F0C63049F1C2E08C010C5F1F4FF12CE12CC62ED12CD1E0F80186
:201F20006481C6010E2C02C0959587950A94E2F780FD6D270F5F1F4F80810E942707BFEFD0
:201F4000EB1AFB0AEC1658F3DF91CF911F910F91FF90EF90DF90CF900895C4E0D8CFC3E0A3
:201F6000D6CFDC011396EC911397E93008F042C0F0E08827E154F04F8F4F0C948C40C80FE8
:201F8000D00FD70FDE0FE50FFA0FEC0FFA0FF30FED91FC9111970084F185E02DCD01199457
:201FA000ED91FC9111970284F385E02DF7CFED91FC9111970484F585E02DF0CFED91FC9111
:201FC00011970684F785E02DE9CFED91FC9111970088F189E02DE2CFED91FC9111970288DE
:201FE000F389E02DDBCFED91FC9111970488F589E02DD4CF08954F925F926F927F928F929F
:202000009F92AF92BF92CF92DF92EF92FF920F931F93CF93DF93EC01C888D988EA88FB885E
:202020008C859D85AE85BF85C81AD90AEA0AFB0A6C897D898E899F899B01AC010E944D3E88
:202040004B015C016C8D7D8D8E8D9F8D9B01AC010E94963C9B01AC01C501B4010E94FE3C30
:202060000E94663DC114D104E104F10409F0B1C062307105810591050CF0CBC01CA21DA205
:202080001EA21FA21C8A1D8A1E8A1F8A1CAA1DAA1EAA1FAADF91CF911F910F91FF90EF90D5
:2020A000DF90CF90BF90AF909F908F907F906F905F904F9008951016110612061306B4F4E7
:2020C0006C157D058E059F051CF42A812111A1C09B01AC0188279927DC01821B930BA40BF9
:2020E000B50B8CAB9DABAEABBFAB93C0011511052105310509F48DC06C157D058E059F057F
:202100000CF087C08A81882309F483C030952095109501951F4F2F4F3F4F0CAB1DAB2EABFF
:202120003FAB77C0011511052105310509F471C08824992454018C189D08AE08BF086815C7
:2021400079058A059B050CF064C08A81811161C0DDCFCCACDDACEEACFFACA7019601C701FB
:20216000B6010E94963C2B013C01C501B4010E94993D20E030E040E850E40E944D3E20E03F
:2021800030E040E85FE30E94963C9B01AC01C301B2010E94FE3C9B01AC01C701B6010E944B
:2021A000953C3B016C01FE01E05CFF4FE080F180028113819701A8010E94493E181614F494
:2021C00073018601C701D8018CAF9DAFAEAFBFAF3AC00CA91DA92EA93FA91C141D041E046A
:2021E0001F040CF468CF10161106120613060CF099CF0027112798010C191D092E093F09F1
:2022000060177107820793070CF062CF2A8121115FCF8CA89DA8AEA8BFA881149104A1046F
:20222000B10409F096CF88AD99ADAAADBBAD8CAF9DAFAEAFBFAF81E01C141D041E041F0408
:202240000CF080E08A833FEF831A930AA30AB30A8CAA9DAAAEAABFAACCACDDACEEACFFACBF
:20226000C701B6010E946B3D6CA37DA38EA39FA3A701960160E074E284E799E40E94FE3C5A
:202280006C8B7D8B8E8B9F8B2A81211103CF90586C8B7D8B8E8B9F8BFDCECF92DF92EF9205
:2022A000FF920F931F93CF93DF93EC016A017B0120E030E0A901CB01B6010E94FA3C87FFF6
:2022C00004C0F7FAF094F7F8F094A7019601688D798D8A8D9B8D0E94FA3C882309F445C054
:2022E000C88ED98EEA8EFB8E8E01005C1F4FA701960160E074E284E799E40E94FE3CF80135
:2023000060837183828393838CA99DA9AEA9BFA9181619061A061B0644F56C897D898E89B8
:202320009F899B01AC010E944D3E6B017C016C8D7D8D8E8D9F8D9B01AC010E94963C9B0173
:20234000AC01C701B6010E94FE3C0E94663D6CAB7DAB8EAB9FABCE01DF91CF911F910F917F
:20236000FF90EF90DF90CF9046CEDF91CF911F910F91FF90EF90DF90CF900895625064348A
:2023800030F488E00E94760185E10C9476010895CF934830510581F48EEF860F843460F4BB
:2023A000C62F60E08C2F0E94270761E08C2F0E94540781E0CF91089580E0FCCF9C0161508D
:2023C0006B3058F5E62FF0E08827E651FE4E8F4F0C948C40F511F811FB110D120D120D123C
:2023E0000D12FE11041207120A1286EE96E0089589E496E008958CEA95E0089529583F4FC6
:20240000F90180819181089527583F4FF9CF25583F4FF6CF23583F4FF3CF90E080E0089535
:20242000CF9382EF860F8630B8F4C62F8AE00E94760182E0C33169F083E0C23151F084E0B0
:20244000C13139F085E0C03121F087E0CF3009F486E0CF910C947601CF91089581E04A30E2
:20246000510509F080E008956250643430F487E00E94760181E00C9476010895CF92DF923B
:20248000EF92FF920F931F93CF93DF93EC016A017B010E940E08EC81FD81038114812581CC
:2024A0003681C00ED11EE21EF31EC382D482E582F682EC81FD81C380D480E580F680C616E4
:2024C000D706E806F90624F46383748385839683DF91CF911F910F91FF90EF90DF90CF9020
:2024E0000895FC0182819381009739F0FC012281261719F080819181F7CF089580E0089512
:202500000895AB01BC0180912F0890913008FC0124813581232B09F0B1CF0895CF93DF9384
:20252000EC010E940E086E837F838887998783E190E09B878A87DF91CF9108956A37C1F40A
:202540004230B0F0F9014181F0E84F9FA0011124F9012081240F352F311D2115310529F00C
:20256000FC013387228781E0089521E030E0F8CF80E008950F931F93CF938C01C0E0D8016C
:202580005E968C91C81790F4EC2FF0E03196EE0FFF1FE00FF11F80819181DC01ED91FC9100
:2025A0000680F781E02D1995CF5FE9CFCF911F910F910895CF93C0E08AEC8C0F62E0803129
:2025C00028F08EEF8C0F843420F461E08C2F0E948301CF5FC63481F78EE799E0CF91CACF56
:2025E000DF92EF92FF920F931F93CF93DF93EC01E62ED42E89018BE6681709F44CC0ADE617
:202600006A1376C0442309F48EC0F901C081C63408F089C080EF0E9476018EE60E947601CA
:202620008C2F0E947601D0E0FE01EE57F74F80810E947601CC0FDD1FC853D74F0990D88168
:20264000C02D8C2F8F770E947601CE018078892B41F0CE01880F892F881F990B8F770E94F6
:202660007601CE018827907C892B49F0CE01990F880B990F982F881F8F770E94760187EFB7
:202680000E94760181E0DF91CF911F910F91FF90EF90DF90089580EF0E9476018CE60E94EA
:2026A000760102E818E0F12CD8018D918D018F37B9F0E12C8E8DE81698F4EE2DF0E031964C
:2026C000EE0FFF1FEC0FFD1F80819181DC01ED91FC910190F081E02D6F2D1995E394EACF44
:2026E0008FE70E947601F394B6E4FB12DDCFC7CFF12C8E8DF816B8F4EF2DF0E03196EE0F39
:20270000FF1FEC0FFD1F80819181DC01ED91FC910480F581E02D98014D2D6E2D1995811194
:20272000B2CFF394E6CF80E0AECFDF92EF92FF920F931F93CF93DF93EC01D62E8A01F12CBB
:20274000E12C8E8DF816A8F4EF2DF0E03196EE0FFF1FEC0FFD1F80819181DC01ED91FC91C7
:202760000280F381E02DA8016D2D1995E82AF394E8CF8E2DDF91CF911F910F91FF90EF902C
:20278000DF9008956250643430F481E00E94760181E00C9476010895CF938EEF860F843404
:2027A000B0F44130510599F4E62FF0E0EE57F74F80818F3761F0C62F60E08C2F0E942707D9
:2027C00061E08C2F0E94540781E0CF91089580E0FCCF80E008950F931F93CF93DF939EEFC5
:2027E000980F943490F4C82FD0E0FE01EE57F74F9081913051F4072F162F0E942707CC0F78
:20280000DD1FC853D74F18830983DF91CF911F910F9108954F925F926F927F928F929F9261
:20282000AF92BF92CF92DF92EF92FF920F931F93CF93DF93893008F0A7C08F5FC82FCC0F22
:20284000CC0FCC0F4C2EC73410F056E4452ED62F38EF532E5C0E852C912CC401880F991F07
:202860009C01295C374F5901052DD12CC12C10E0772473940415C8F58EEF800F8434F8F422
:20288000F601E80DF91DEE57F74F90819230B8F4872D8D2366246394811101C0612C7601F0
:2028A000EE0CFF1C913089F4172931E9E30EF11CF501EE0DFF1D862D90E091838083770CA3
:2028C0000F5F8FEFC81AD80AD5CF882371F3F701EF56FF4FEA0DFB1D80819181019729F334
:2028E00062E0802F0E945407E0CF10FF05C06D2F6170852D0E94270711FF06C06D2F627034
:2029000089EF8C0F0E94270712FF06C06D2F64708AEF8C0F0E94270713FF06C06D2F68705D
:202920008BEF8C0F0E94270714FF06C06D2F60718CEF8C0F0E94270715FF06C06D2F60723E
:202940008DEF8C0F0E94270716FF06C06D2F60748EEF8C0F0E94270717FF16C06D2F6078FD
:202960008FEF8C0FDF91CF911F910F91FF90EF90DF90CF90BF90AF909F908F907F906F9058
:202980005F904F900C942707DF91CF911F910F91FF90EF90DF90CF90BF90AF909F908F90C3
:2029A0007F906F905F904F900895FC0132960B961192118A1086E817F907D1F7089562504E
:2029C000643460F480E00E94760181E00E9476018BE00E94760181E00C9476010895CF931D
:2029E0002EEF260F2434A0F5E62FE695E695E695E80FF92FF11D8489962F977021E030E0FB
:202A000001C0220F9A95EAF74115510519F04B305105D9F4C62F282B248B452B39F460E08D
:202A20008C2F0E94540781E0CF91089562E08C2F0E945407EC2FF0E0EE0FFF1FE853F74FFF
:202A400081E090E091838083EFCF20952823248B80E0EACF0F931F93CF938C01060F111D82
:202A6000D80154968C915497C42FC823211104C01B968C918C1769F180913708909138083B
:202A80006F706069DC01ED91FC910190F081E02D199580913708909138086C2F6F77DC01DA
:202AA000ED91FC910190F081E02D199580913708909138086C2F70E0660F672F661F770BA0
:202AC000DC01ED91FC910190F081E02D1995F801C387CF911F910F910895EF92FF920F930D
:202AE0001F93CF93DF93893008F072C0E0906A09F0906B09F701E80FF11D6283672B09F425
:202B000067C0082F1489D82FDD0FDD0FDD0F8EEF8D0F843450F4C12FC17010FF07C08D2F27
:202B20000E94FF06C1E0892B09F4C0E08FEF8D0F843448F411FF07C081E08D0F0E94FF0673
:202B4000892B09F0C26012FF07C082E08D0F0E94FF06892B09F0C46013FF07C083E08D0F80
:202B60000E94FF06892B09F0C86014FF07C084E08D0F0E94FF06892B09F0C06115FF07C0AF
:202B800085E08D0F0E94FF06892B09F0C062D034A1F016FF07C086E08D0F0E94FF06892BF0
:202BA00009F0C064DF3349F017FF07C087E08D0F0E94FF06892B09F0C06821E04C2F602F46
:202BC000C701DF91CF911F910F91FF90EF9042CFDF91CF911F910F91FF90EF9008958EEFA6
:202BE000860F8C3018F06C52633030F483E00E94760188E00C9476010895FC011382128249
:202C000008956653603130F482E00E9476018AE00C9476010895CF938031B0F4E0913308AD
:202C2000F09134084281538121E030E0082E02C0220F331F0A94E2F7672B41F420953095FC
:202C40002423352333832283CF910895242B352B33832283909154099111F6CFC82F0E94F5
:202C60009007BC018C2FCF910C946904CF9380EF0E9476018AE60E947601CAEC8C2FC03103
:202C800008F08FE70E947601CF5FC031B9F787EF0E94760181E0CF910895693609F4E6CFA0
:202CA00080E00895CF93C82F80EF0E94760182E60E94760184E20E9476018C2F0E94760162
:202CC00087EFCF910C947601DF92EF92FF920F931F93CF93DF93262F30E02F5F3F4F220FAA
:202CE000331F820F931FDC01ED91FC91309709F468C0048515852685378550E037FF08C0B3
:202D000030952095109501951F4F2F4F3F4F51E0F02EE894F7F8D901C80177E0B595A7954A
:202D2000979587957A95D1F7D82FDF77D901C801EEE0B595A79597958795EA95D1F7C82F9A
:202D4000CF77D901C801F5E1B595A79597958795FA95D1F7E82EE894E7F8ACE1359527950B
:202D600017950795AA95D1F70F7751110860D42E162F80EF0E94760182E60E9476018AE0FA
:202D8000D11001C086E00E947601812F0E9476018F2D0E9476018D2F0E9476018C2F0E9442
:202DA00076018E2D0E947601802F0E94760187EFDF91CF911F910F91FF90EF90DF900C944D
:202DC0007601DF91CF911F910F91FF90EF90DF9008954830510551F48EEF860F843430F441
:202DE000862F61E00E94540781E0089580E008958F929F92AF92BF92EF92FF920F931F939B
:202E0000CF93DF93EB01863408F09FC0082F10E0F801EE57F74F9081933009F4A1C0943040
:202E200009F093C08250803308F08FC0E091B30DF091B40DC8010197880F991FE80FF91F48
:202E4000E080F180E114F10409F478C09B01603282E078070CF03DC0D70111968C91119736
:202E6000E8E88E2E912C881A910887FD9394880C991C880C991C092C000CAA08BB08129633
:202E80008C9128E532E0281B310987FD3395220F331F220F331F032E000C440B550B2819FA
:202EA00039094A095B09DB01653B710514F0A4EBB0E0B7FF02C0B0E0A0E00E945E3C24EB31
:202EC00030E040E050E00E94383C280D391D4A1D5B1DD701EC91E03388F511964C91119701
:202EE00088E890E0841B910947FD9395880F991F880F991F2817390784F012964C9188E5CA
:202F000092E0841B910947FD9395880F991F880F991F281739070CF4C9010297880F991FCB
:202F20004FB7F8942E2F30E0F901EE0FFF1FE20FF31FE55EFB4F928381834FBF000F111F87
:202F4000F801E853F74FD183C083DF91CF911F910F91FF90EF90BF90AF909F908F900895B9
:202F60009EEF980F9C3020F094ED980F933068F7F82E61E00E945407209729F460E08F2DC3
:202F80000E942707DBCFCF3FD10511F461E0F7CFF801E058FE4FE491E150E23108F0B0C028
:202FA000F0E08827E952F84E8F4F0C948C40E917EE17F317FD17071880181118191821185A
:202FC0002B1835183F184E185818801862186C18761884B5806884BDC7BDB0CF84B5806290
:202FE00084BDC8BDABCF80918000806880938000D0938900C0938800A1CF809180008062DB
:2030000080938000D0938B00C0938A0097CF80918000886080938000D0938D00C0938C0011
:203020008DCF8091B00080688093B000C093B30085CF8091B00080628093B000C093B40001
:203040007DCF80919000806880939000D0939900C093980073CF80919000806280939000A9
:20306000D0939B00C0939A0069CF80919000886080939000D0939D00C0939C005FCF8091D3
:20308000A00080688093A0008091A0008F7B8093A000D093A900C093A80050CF8091A000B0
:2030A00080628093A000D093AB00C093AA0046CF8091A00088608093A000D093AD00C093AC
:2030C000AC003CCF80912001806880932001D0932901C093280132CF8091200180628093BA
:2030E0002001D0932B01C0932A0128CF80912001886080932001D0932D01C0932C011ECF5F
:20310000C038D1050CF042CF39CFF9016F36E1F44230E8F0618170E0423091F0828120E8DE
:20312000829FC0011124682B792B433049F0838190E090E4899F902D88271124682B792BAD
:20314000808156DE81E00895693609F48FCD80E00895FC01E65BFF4F2081222331F0108222
:20316000855B9F4F2FEFFC01208308956451623030F486E00E94760181E00C947601089527
:203180009C018CEE860F8230B0F446305105A9F0D901A65BBF4F8C91882371F0E62FF0E0D1
:2031A000EE57F74F8081863031F41C92255B3F4F8FEFF901808380E0089581E008956250C4
:2031C000603330F484E00E9476018EE00C9476010895FC0101900020E9F73197BF01681B00
:2031E000790BAC0181E70C94E4039A01A0913108B0913208ED91FC9111970480F581E02D75
:20320000462F682FCD011995811103C088EF92E0E0CF0895CF93DF93EB01A0913108B09131
:203220003208ED91FC9111970280F381E02DAB01682FCD011995811108C0CF37D10529F090
:2032400080E193E0DF91CF91C4CFDF91CF9108958F929F92AF92BF92CF92DF92EF92FF9202
:203260000F931F93CF93DF93182F062FC42FD22F822E912CB12CA12CC501B40122E09595F8
:203280008795779567952A95D1F76F707727882799276B507109810991090E94993D6B015A
:2032A0007C01602F70E090E080E037E0660F771F881F991F3A95D1F7612B0C2F10E030E003
:2032C00020E04EE0000F111F221F331F4A95D1F7602B712B822B932B55E1880C991CAA1C70
:2032E000BB1C5A95D1F78824992420E6A222BB24682979298A299B290E94993D4B015C0163
:20330000D6FF04C0B7FAB094B7F8B094A701960160E070E080E291E40E94B03EA5019401BB
:203320000E944D3EDF91CF911F910F91FF90EF90DF90CF90BF90AF909F908F900895EF926A
:20334000FF920F931F93CF93DF938C01EC0122967C018EE0E80EF11C89919991009731F098
:203360000E945041FE01329711821082CE15DF0599F7F8011686DF91CF911F910F91FF9092
:20338000EF9008951F93CF93DF93EC0118E0612FCE0114D8009711F00E9450411F5F1C30C6
:2033A000B1F78FEF8AA3FE013A96A29611921192CE17DF07D9F7DF91CF911F9108950F9313
:2033C0001F93CF93DF93EC018C010E5F1C4F8A819B81009721F00E9450411B821A821C823C
:2033E0001D821E821F82188619861A861B861C862B960C171D0759F7DF91CF911F910F9155
:2034000008950F931F93CF93DF93EC018A819B81009741F0FC01008111810E9450411B832A
:203420000A83F4CFDF91CF911F910F910895EF92FF920F931F93CF93DF938C01EC01229613
:203440007C0186E1E80EF11C89919991009731F00E945041FE01329711821082CE15DF05A2
:2034600099F7F80117A67801F0E2EF0EF11C89919991009731F00E945041FE013297118227
:203480001082CE15DF0599F7F80110AADF91CF911F910F91FF90EF900895CF93DF93C62FFC
:2034A000D0E0CC0FDD1FC80FD91FBA91AA911097A1F0EC912E2F30E0F901EE0FFF1FE20F08
:2034C000F31FE55EFB4F908196FF02C09F7B9083CD010E94504119821882DF91CF91089515
:2034E0000F931F93CF938C01C0E08EEF8C0F803318F46C2FC801D1DFCF5FC634B1F7CF91CE
:203500001F910F9108957F928F929F92AF92BF92CF92DF92EF92FF920F931F93CF93DF93BD
:20352000EC01D901603609F0D6C08C91182F1F701C3008F0D0C0807F803309F4DEC1590130
:20354000042F813338F48031A1F1803209F4B7C181E0C2C0803609F42EC2803709F43AC2B8
:203560008035B1F7612FCE010E94DE11EC01009779F3183008F019C2E881F9810680F78112
:20358000E02D1995EA89FB8980818F7E8083EA89FB898081877F8083EA89FB8980818F7769
:2035A0008083EA89FB8980818F7D80838A8D898FCFCFD9011296CC901297D12CF12CE12C86
:2035C00087E0CC0CDD1CEE1CFF1C8A95D1F713968C9190E0B0E0A0E02EE0880F991FAA1F3B
:2035E000BB1F2A95D1F78C299D29AE29BF29F50121816C017D01C22A812F90E0FC01EE0FA7
:20360000FF1FEC0FFD1FE15AFF4F11821082FC01EE0FFF1FEE0FFF1FEC0FFD1F13A214A212
:2036200015A216A28C0F9D1FFC01ED5AFF4F1082183058F5612FCE010E94DE11EC01892B7A
:2036400009F486CF11501330D0F4812F90E0FC01E75FFD4F10818A5F9D4FDC010C911123ED
:2036600071F0002361F06AE0812F0E9483016AE0802F0E94830160E0812F0E945407B70191
:20368000A601CE010E94740363CF053008F1F501048175801A3009F4E5C01B3009F4E7C0F0
:2036A000193041F55E01F9E7AF0EB11CD5018D919C91892BA1F58FE190E00E94B4404C0194
:2036C000472D602F0E941C31F5019182808227C081E293E07EDD80E0DF91CF911F910F9155
:2036E000FF90EF90DF90CF90BF90AF909F908F907F9008954E01F7E78F0E911CD4018D91FC
:203700009C91892B61F48FE190E00E94B4405C01472D602F0E941C31F401B182A082612FD4
:20372000CE010E94DE11EC01892B09F411CF6AE0802F0E9483016AE0872D0E9483011B8EBF
:203740001A8E198E188E1F8A1E8A60E079E08DE390E0A70196010E94383CB901C901039737
:203760002430310510F481E090E09D8F8C8F8C8596EF980F943048F0EEECE80FE43028F06D
:20378000E2ECE80FE83008F069C0F901F695E795E431F10508F470C07397FF8BEE8B663050
:2037A000710508F46CC0B90165507109798F688FB901660F771F260F371F369527953695E1
:2037C00027952D30310508F45DC02C5031093B8F2A8F943050F02EEC280F243030F022EC71
:2037E000280FF0E0E0E0283010F4E8E6F0E02081943028F032EC380F383008F446C031E0AB
:20380000232B943048F09EEC980F943028F08E53F0E0E0E0883010F4E8E6F0E020832C8532
:2038200036EF320F343098F18EEC820F843078F182EC820F883070F58DE690E09C8B8B8BD1
:20384000343058F52650330B81E001C0880F2A95EAF78D8B8C8D9D8D0197F1F7CE010E945E
:20386000DD0876CE5E01FBE7AF0EB11C1FCF5E01FDE7AF0EB11C1ACFE1E0F0E08ECF61E081
:2038800070E094CF21E030E0A2CF34E0B9CF8BE690E0D4CF90E080E0D1CF88E02233C9F2EB
:2038A00084E02333B1F282E0243399F282EC820F883018F42E53330BC7CF81E0CACF612FC5
:2038C000CE010E94DE117C01892B09F441CEE50111E0101708F03CCE6A81679566276795DB
:2038E0008981680FD701ED91FC910190F081E02DC70119951E5F2296ECCF11968C91119783
:20390000811126C03AA137300CF022CE812F90E00596880F991FFE01E80FF91F4330A8F0DE
:2039200013968C91139720E8829FC001112412962C91822B9183808381E0830F8AA3C80FD8
:20394000D11D87FDDA951A8303CE11821082F4CF813009F0FDCD9AA119161CF08FEF8AA39B
:20396000F7CD80E0492F092E000C550B282F30E04217530774F480E0E82FF0E04E175F0774
:203980008CF0883020F4EC0FFD1F238122838F5FF3CF2C0F3D1FD90112962C91121761F37C
:2039A0008F5FE4CF91509AA3D3CD0E94C708CE010E945041CDCD612FCE010E94DE11009714
:2039C00009F4C6CDDC01ED91FC910680F781E02D1995BECD183008F4BBCD612FCE010E945E
:2039E000DE11009709F03BCFB3CD2F923F924F925F926F927F928F929F92AF92BF92CF9203
:203A0000DF92EF92FF920F931F93CF93DF9300D000D000D01F92CDB7DEB7633709F0DFC18E
:203A2000423008F4DCC12901B42E6C01D9017C9011966C902BE0A22E862C912C7C01A69C70
:203A4000E00CF11C1124F7010281138101151105F1F4F1E47F1609F461C081E02A960FB6AA
:203A6000F894DEBF0FBECDBFDF91CF911F910F91FF90EF90DF90CF90BF90AF909F908F90EC
:203A80007F906F905F904F903F902F90089581E4781609F443C094E4791619F0A0E47A120C
:203AA0008AC0F8011386158614861286118610861782168215821482138280EF0E947601B5
:203AC00083E70E947601F4E482E47F1201C085E40E947601862D0E94760110922E0810920B
:203AE0002D086E0189E0C80ED11C94E440E0791241E0BE016F5F7F4FC8010E94DE0B882358
:203B000009F467C1DE0111967D01F70181917F010E948A04CE14DF04C1F7E7CFF3E0BF12EB
:203B20005EC1F401EE57F74F80818F3709F457C167E0862D0E948301FF24F394D2011296C5
:203B40008C91811101C0F12C8BE0889D8001899D100D11240C0D1D1DF80182819381892B38
:203B600069F48EE090E00E94B4405C01662D0E945B0CD8011396BC92AE9212972BE0289DF2
:203B8000F001299DF00D1124EC0DFD1D1482158216821782108611861286BFEF8B1A9B0A0E
:203BA000289DC001299D900D1124C80ED91ED6011C92F48652CF70FE15C0C8010E94A60B9B
:203BC000F7011482158216821782108611861286C4010196A89EF001A99EF00D1124EC0DC5
:203BE000FD1D108271FE1FC040E06CECC8010E94730B8BE0889DF001899DF00D1124EC0D98
:203C0000FD1D148215821682178210861186128694012F5F3F4F829FF001839FF00D112450
:203C2000EC0DFD1D1082872D8C7309F416CF8B2D8250990BAC0187E0849F5001859FB00CB4
:203C4000112493E0B594A7949A95E1F7720192E0E90EF11CA701B701C5010E94D20472FE3A
:203C60002FC0A8E0AA16B1040CF4F7CE40E065E5C8010E94730B1701BAE04B0E511CF701D0
:203C800061917F0140E0C8010E94730BE414F504B1F7FBE06F9E9001112490E080E0D101C0
:203CA0004D911D01FC01E20FF31FEC0DFD1D448301968830910599F77201B8E0AB1AB10830
:203CC00073FE4FC0E4E0AE16B1040CF4C6CED7014D905C9011971296BC91B987F701F381A9
:203CE000FA8784E0E80EF11C94E0A91AB10874FE17C0A4E0AA16B1040CF4AFCEF701608154
:203D0000718182819381E0916709F0916809309709F01995F4E0EF0EF11C84E0A81AB1089C
:203D200075FE22C0AE0CBF1C2BE0289DC001299D900D1124C80ED91E46019CE0890E911C9C
:203D4000A2E0CA0ED11CAE14BF0471F0F70161917F01D4014C91F601808191810E94730BF0
:203D6000F2CF512C412CC3CF141415040CF075CE80EF0E94760183E70E94760183E40E9472
:203D80007601862D0E94760110922E0810922D0889850E948A048A850E948A04F12CE12C8A
:203DA00088E0A82EB12CD12CCC24C394C8010E94200B8111DC28CC0CF1E0AF1AB108B1F7A5
:203DC0008D2D0E948A048FEFE81AF80A4E145F0439F70E947F0487EF0E9476013ECE80E062
:203DE0003DCEAF92BF92CF92DF92EF92FF921F93CF93DF932EEF260F243408F044C047309F
:203E0000510509F040C0162FEC01E62EF12C6C018BE0689FC00CD11C1124F6018281938115
:203E2000892B59F48EE090E00E94B4405C01612F0E945B0CF601B382A2829BE09E9DF00120
:203E40009F9DF00D1124EC0FFD1F14821582168217821086118612868FEFE81AF80A9E9DFD
:203E600090019F9D300D1124C20FD31F188281E08487DF91CF911F91FF90EF90DF90CF90DE
:203E8000BF90AF90089580E0F4CFCF92DF92EF92FF920F931F93CF93DF936B3709F027C145
:203EA000411102C081E024C1D901EC91E830D0F7E9018C01F0E08827EF59F04E8F4F0C9478
:203EC0008C40691F971FBD1F02201B20482062206E20443039F7F9806F2DC8010E94711280
:203EE00041E0BC01892B09F0D1C08B81B0E88B9FC00111242A81EC01C22BCE010B960E944B
:203F0000B440FC01F2821382148215821682D087C783D80112968D919C91139791838083B4
:203F2000128611861396FC93EE931297BBCF423009F0B8CF3981D8011296ED91FC91B0E09E
:203F4000A0E0309709F4AECF228190818181321309C0109759F09C9311968C93CF010E9485
:203F60005041A0CFDF01E92FF82FEBCFD80112969C93129713968C93F1CF433008F492CFB7
:203F80004250550B87E0849F7001859FF00C112483E0F594E7948A95E1F7B9016E5F7F4F2C
:203FA000AB01C7010E94D204D9806D2DC8010E947112FC01892BF9F0818592858E0D9F1D26
:203FC00027813085281739070CF46CCFEC0EFD1EEC16FD0609F466CF818592859C012F5F36
:203FE0003F4F328721872A818E0F9F1FDC011B962C932196EDCF41E070E060E08D2D0E94FF
:20400000130550CF463009F04DCFB9016F5F7F4FAB0184E090E00E94D204F801848195817C
:20402000892B09F43FCF49815A816B817C81C8010E943E1237CF473009F034CFB9016E5F78
:204040007F4FAB0184E090E00E94D204F9806F2DC8010E9471128C010097A9F0CA80DB8035
:20406000EC80FD80DC011A961C921E9219970E940E08C60ED71EE81EF91EF801C382D4828A
:20408000E582F6820FCF41E070E060E08F2DB7CF80EF0E9476018BE70E94760189E00E9452
:2040A0007601D8011296CD91DC91209739F08A810E9476010990D881C02DF7CF87EF0E947C
:2040C0007601F0CE423009F0EDCEC9816C2FC8010E94711240E0BC018C2F91CFD801ED9163
:2040E000FC910680F781E02DC8011995DBCE80E0DF91CF911F910F91FF90EF90DF90CF90AC
:204100000895CF92DF92EF92FF920F931F93CF93DF937A016901C62FD0E08E01000F111F9E
:20412000080F191FD8019E918E918D010097E9F483E090E00E94B440209116042033D0F5BB
:2041400031E0320F30931604FC01208330E0F901EE0FFF1FE20FF31FE55EFB4F28EB3BE0AD
:2041600032832183F80191838083DC01EC912E2F30E0F901EE0FFF1FE20FF31FE55EFB4F6A
:20418000208126FF02C02F7B2083F7FE06C020E639E040E252E0D7FC02C09601A701BE0189
:2041A000DF91CF911F910F91FF90EF90DF90CF900C94BE092FEFDC012C93D4CFCF92DF926D
:2041C000EF92FF920F931F93CF936037A9F5453098F1F901C0814EEF4C0F403368F5EC2F26
:2041E000F0E0EE57F74F40814F3731F1F9018C01E28020E8E29EC0011124E180E80EF92E16
:20420000F11CC48020E8C29EC0011124C380C80ED92ED11C64E08C2F0E9483019601A7017E
:204220006C2FC8016EDF81E0CF911F910F91FF90EF90DF90CF90089580E0F6CF2EEF260FCC
:20424000203358F44430510539F42FEF3FEF4FEF5FEF57DF81E0089520D980E008954F92E5
:204260005F926F927F928F929F92AF92BF92CF92DF92EF92FF92CF93DF93EC016A017B01CB
:2042800020E030E0A901CB01B6010E94FA3C87FF04C0F7FAF094F7F8F0948C8C9D8CAE8C5C
:2042A000BF8CA7019601C501B4010E94FA3C882309F449C06CA97DA98EA99FA90E94993D3E
:2042C0002B013C01A7019601C501B4010E94FE3C9B01AC01C301B2010E944D3E0E94663DAD
:2042E0006CAB7DAB8EAB9FABA701960160E070E080E090E40E94FE3C0E94003F26E53EE073
:204300004DE25FE30E944D3E20E034E244E759E40E944D3E68AF79AF8AAF9BAFCC8EDD8ECD
:20432000EE8EFF8ECE01DF91CF91FF90EF90DF90CF90BF90AF909F908F907F906F905F9020
:204340004F900C94FB0FDF91CF91FF90EF90DF90CF90BF90AF909F908F907F906F905F904F
:204360004F900895CF92EF920F93CF93DF93EC0180E192E0998388836B831C861D861E86AB
:204380001F86188A198A1A8A1B8A1C8A1D8A1E8A1F8A80E090E0A0E8BFE3888F998FAA8FDA
:2043A000BB8F1C8E1D8E1E8E1F8E88A399A3AAA3BBA31CA21DA21EA21FA261E070E07DA740
:2043C0006CA73FEF3FA718A619A61AA61BA64C832D830E83EF821CAA1DAA1EAA1FAA18AE53
:2043E00019AE1AAE1BAE1CAE1DAE1EAE1FAEFE01E05CFF4F80839183A283B3831A82188602
:2044000019861A861B86CC2019F0CE010E94EB0D40E050E060E87FE3CE01DF91CF910F9125
:20442000EF90CF901CCF2F923F924F925F926F927F928F929F92AF92BF92CF92DF92EF9206
:20444000FF920F931F93CF93DF93CDB7DEB760970FB6F894DEBF0FBECDBF6237D1F080E092
:2044600060960FB6F894DEBF0FBECDBFDF91CF911F910F91FF90EF90DF90CF90BF90AF9075
:204480009F908F907F906F905F904F903F902F900895D90111961C911197163000F759015A
:2044A0009A838983F9018081811185C0F580EF2DF0E0EE57F74F80818F3789F216960C918A
:2044C0001697E02FF0E0EE57F74F80818F3739F21296DC9012971396CC9013971496EC9041
:2044E00068E08F2D0E94830168E0802F0E948301812E912C880C991CE981FA818E0E9F1E82
:20450000D40112968D919C91892B19F486858F5F86872D2D2F7030E8E39EF0011124EC0D5B
:20452000F11DFA83E9838FEF820F8230B0F483E490E00E94B4405C0145E0C42E54E0E52EF7
:204540002F2D49815A816D2D0E94270DD4011396BC92AE92129781E083CF2430E1F7F50160
:20456000E780EE2DF0E0EE57F74F80818F3709F476CFD5011896CC90EC2DF0E0EE57F74F01
:2045800080818F3709F46BCF68E08E2D0E94830168E08C2D0E94830183E490E00E94B44060
:2045A0005C012F2D49815A816D2D0E94270DF401B382A282D0CF813071F6C480D12CF12CCA
:2045C000E12C27E0CC0CDD1CEE1CFF1C2A95D1F7858190E0B0E0A0E03EE0880F991FAA1F8E
:2045E000BB1F3A95D1F78C299D29AE29BF2923816C017D01C22A8281811108C0F094E09440
:20460000D094C094C11CD11CE11CF11C212F30E02F5F3F4F220F331F89819A81820F931FA7
:20462000DC010D90BC91A02DB88BAF87AB2B09F492CFF5010781F0E80F9F90011124D50199
:2046400016960C911697020F132F111D88EF840F843008F04FC0EF85F88911861286138661
:204660001486178E10A211A212A213A214A215A216A210A617A2F7FE37C01282F094E09421
:20468000D094C094C11CD11CE11CF11CEF85F889C586D686E786F08A9801110F440B550BA3
:2046A00065A576A587A590A90E94383CAF85B88955962D933D934D935C935897FD01238308
:2046C0003483458356835996CD92DD92ED92FC925C9783E052968C93529754961C921E922A
:2046E000539781E08C93BCCE81E0AF85B88912968C93CCCF4C3009F02ECFF5012184F0E8A9
:204700002F9E1001112418962C911897220E311C1A967C901A971B966C90EF85F889118649
:20472000128613861486178E10A211A212A213A214A215A216A210A617A2F7FE46C0128218
:20474000F094E094D094C094C11CD11CE11CF11CEF85F889C586D686E786F08A65A576A52D
:2047600087A590A99801012E000C440B550B0E94383C49015A01AF85B88955968D929D92E8
:20478000AD92BC9258972114310459F0B0E86B9E90011124F901E70DF11DFA83E983EF2B84
:2047A000D1F4AF85B88913968D929D92AD92BC921697FD01C18ED28EE38EF48E83E0828B7E
:2047C000148A138A81E080834BCE81E0AF85B88912968C93BDCFF1E0CF16D104E104F10493
:2047E00091F48FEF9FEFAF85B88954969C938E93539782E052968C935297FD018382948224
:20480000A582B682DFCFC114D104E104F10409F4A2CEC101032C000CAA0BBB0B8B839C83F5
:20482000AD83BE83BC01CD010E94993D9B01AC01AF85B889D5966D917D918D919C91D89715
:204840000E94FE3C0E94003F20E030E443ED55E40E944D3E20E030E04AE754E40E944D3E4B
:204860000E94663D6F83788789879A87EF85F88963837483858396839801D8010E949440F6
:204880002B013C0161A972A983A994A92B813C814D815E810E945E4024E630E040E050E061
:2048A0000E94383CC301B2010E94383C29013A01411451046104710421F4412C512C32013A
:2048C000439489819A81092E000CAA0BBB0B8B879C87AD87BE87A7019601BC01CD010E9404
:2048E0005E4029813A81220D331D032E000C440B550B0E94383CC901211531054105510562
:20490000E9F14216530664067506E8F18C199D09AF85B8895E969C938E935D97AF85B889E1
:204920005D968D919C915E97892B31F48FEF9FEF5E969C938E935D97EF85F889858D968DFD
:20494000092E000CAA0BBB0B8C0D9D1DAE1DBF1D818F928FA38FB48F8F819885A985BA855F
:2049600088169906AA06BB0640F183829482A582B68283E0828BAF85B889AFCE81E090E0AB
:20498000A0E0B0E0C3CF2B813C814D815E81C301B2010E945E4090958095709561957F4FA5
:2049A0008F4F9F4F2B853C854D855E850E94383CEF85F889368F258FB1CF81E0EF85F889AB
:2049C000828BD9CFCF9343305105C1F48EEF860F8C3020F084ED860F833080F4C62F61E001
:2049E0008C2F0E94540761E08C2F0E94540760E08C2F0E94270781E0CF91089580E0FCCFB2
:204A0000CF93DF93FC01DAECD60FD03158F5A281B38121E030E00D2E02C0220F331F0A9446
:204A2000E2F742305105C1F4C62F2A2B3B2B3383228380915409811107C08D2F0E94900759
:204A4000BC018D2F0E94690460E08C2F0E94540781E0DF91CF910895209530952A233B23E3
:204A60003383228380E0F5CFAF92BF92CF92DF92EF92FF920F931F93CF93DF93EC01B62E48
:204A80007A01122F4F3F540709F485C081E0809388056093AA05109289051092AB05642F77
:204AA00080E298E00E948D09802F0E940C04FE01E45BFF4F80819181009711F00E94AD07F6
:204AC000809187058111FCCF912F113208F090E281E080938705809386052FEF2093850576
:204AE00010928405290F2093830580936205209162058B2D880F822B809362058091610599
:204B0000813009F04AC010926105809162058093BB008091BC0083FDF8CF85EC8093BC003F
:204B2000809187058130E1F380918405891710F490918405A3E6B5E0EBEAF4E080E08913A8
:204B40002EC01092CC048093CB04C12ED12C90E0C816D90644F58FE393E00E94E918BAA6D9
:204B6000EBA65E01ECE2AE0EB11CF12CE12CEC14FD04FCF49091CB048091CC049817C9F09A
:204B800080E298E00E944709F50181935F01FFEFEF1AFF0AECCFE12C93CF85EEBFCF2D91F6
:204BA00021938F5FCCCF8C159D05CCF68CE593E0D4CFAE01465D5F4F62E0610F87E7DF919C
:204BC000CF911F910F91FF90EF90DF90CF90BF90AF900C94E403CF92DF92EF92FF920F93AE
:204BE0001F93CF93DF93F42EE901663729F0683709F4F8C010E01CC0FC01E65BFF4F108130
:204C0000112309F4EFC0298125FF05C088E793E00E94E9180DC0688131E026FB002700F994
:204C200003272871283009F43EC060F42223C9F0812FDF91CF911F910F91FF90EF90DF90BF
:204C4000CF900895203109F448C0283189F7EC01C55BDF4F388113160CF47EC08FEF888345
:204C6000E7CF309388056093AA05109289051092AB0502E00F1578F4FE01E00FF11D6181BA
:204C80006795662767958081680F80E298E00E948D090E5FEFCF81E00E940C0483E191E0F2
:204CA0000197F1F7C5CF3A812B8146E0F4120EC070E8279FA0011124430F511D2D81279561
:204CC000222727953C81230FCFDEB2CF279522272795230F4FEF5FEFF7CFFC01E55BFF4FE2
:204CE000408147301CF088E993E092CFAA813B81B6E0FB122AC050E8359F90011124A20F34
:204D0000B32FB11D3D813795332737952C81320F4F5F4083042E000C550B25E0249FF0017D
:204D2000259FF00D1124E80FF91F6283B483A3834F5F5F4F249FB001259F700D1124860F51
:204D4000971FDC013C93068373CF3795332737953A0FAFEFBFEFDCCF20E0E32E032E000CA6
:204D6000FF0875E0422F50E0E416F50664F0749FF001759FF00D1124E80FF91F4281641756
:204D800019F02F5FEFCF20E045E0622F70E0E616F7062CF1283008F5FB0131964E9FD001CC
:204DA0004F9FB00D1124A80FB91F12965C911297469FF001479FF00D11246F01C80ED91E1B
:204DC000F601528313966D917C911497748363835285558316965C9156832F5FD6CF3150F6
:204DE000388326CF2981B0E82B9FA00111242881240F352F311D2115310529F0FC01E45BD2
:204E0000FF4F318320838C01065B1F4FF801808181114EC0D0E0C0E08C2F8451823078F4F9
:204E2000FE01EE57F74F80818F3709F441C066E08C2F0E94830166E08C2F0E945407219647
:204E4000C634D10549F781E0D8018C931092CC041092CB04109289051092AB051092870556
:204E6000809386051092610561E084E10E94270761E085E10E9427078091B9008E7F8093B5
:204E8000B9008091B9008D7F8093B90088E48093B80085E48093BC0086E399E09093EE0451
:204EA0008093ED0487E399E09093F2048093F104F8011081BDCE2F923F924F925F926F9270
:204EC0007F928F929F92AF92BF92CF92DF92EF92FF920F931F93CF93DF93CDB7DEB72E97F3
:204EE0000FB6F894DEBF0FBECDBF5C01498749012DB63EB63E862D86623609F180E02D8403
:204F00003E840FB6F8943EBE0FBE2DBE2E960FB6F894DEBF0FBECDBFDF91CF911F910F919F
:204F2000FF90EF90DF90CF90BF90AF909F908F907F906F905F904F903F902F900895D901D8
:204F400011960C9111970A3010F081E0D8CFF901F081F983F11150C11496DC901497ED2D4E
:204F6000F0E0EE57F74F80818F3741F21396FC901397EF2DF0E0EE57F74F80818F3709F4C2
:204F8000BDCF1296CC9068E08F2D0E94830168E08D2D0E948301202E312C3E822D823101E3
:204FA000660C771C6A0C7B1CD30112968D919C91892B21F4F50187A58F5F87A72C2C312C5C
:204FC000C10114E0959587951A95E1F7182F177000E0E12CA5E04A2E512C133018F1D401F8
:204FE00015960C91E02FF0E0EE57F74F80818F3709F484CF68E0802F0E948301133009F48B
:2050000095C0F401E680EE2DF0E0EE57F74F80818F3709F473CF68E08E2D0E948301B7E0A4
:205020004B2E512CFC2DF170FB87C0FE10C0F401E40DF51D20812983E22FF0E0EE57F74F2F
:2050400080818F3709F45ACF3FEF431A530A113009F071C084E490E00E94B4401C01CC2495
:20506000C394E5E0EE2E04E02D2D4F2D61E0C10179D9D30113963C922E9212972984241450
:205080001504B0F0D3011296ED91FC91840C951CD4018C9184FB992790F9382F317081FB51
:2050A000222720F9113009F09CC02087318796A72B842220C1F0D30112960D911C9129804A
:2050C000F80127A6222D2F3F71F061E0822D0E945407D8019E966C919E9781E068279F969B
:2050E0008C910E94270740E050E060E070E4F301828193810E944D1140E050E060E87FE3DA
:20510000D30112968D919C910E944D1140E054E264E779E4F30182819381A1D82D803E80DB
:20512000A20CB31CD50190961C920FCFE12CF6E04F2E512C77CF123099F484E490E00E94FE
:20514000B4401C01CC24C39475E0E72E04E02D2D4F2D62E0C10106D9F301338222828ECF46
:20516000C1019595879587701330F9F481110DC084E490E00E94B4401C01CC24C39455E09A
:20518000E52E2D2D4F2D63E072CF813009F076CF84E490E00E94B4401C01CC24C39445E0BC
:2051A000E42E2D2D4F2D66E0D5CF143009F066CF81110AC084E490E00E94B4401C01C12CD7
:2051C0002D2D4F2D64E053CF813009F057CF84E490E00E94B4401C01C12C2D2D4F2D68E02D
:2051E000B9CF3087218782FB222720F9228783FB882780F983875BCFB981B23009F070C021
:20520000F901438150E070E060E0B7E0440F551F661F771FBA95D1F7848190E0B0E0A0E0FB
:205220001EE0880F991FAA1FBB1F1A95D1F7842B952BA62BB72B2281AC01BD01422B858164
:2052400090E0B0E0A0E025E1880F991FAA1FBB1F2A95D1F7482B592B6A2B7B2B868190E0A6
:20526000B0E0A0E033E0B595A795979587953A95D1F70197A105B10539F4709560955095A6
:2052800041955F4F6F4F7F4F10E0F8013196EE0FFF1FEA0DFB1D0190F081E02D309709F451
:2052A00054CE84859585A685B785840F951FA61FB71F408951896289738984179507A607F2
:2052C000B70739F0808B918BA28BB38BCF010E94FB0FA00EB11E81E0D50190968C930FCE03
:2052E000B981B13011F5802F90E00196880F991FA80EB91ED501ED91FC91309709F425CE63
:205300001486158616861786108A118A128A138A14AA15AA16AA17AA14A215A216A217A2D5
:20532000148A158A168A178A10CEB981B33009F062C010E0F8013196EE0FFF1FE80FF91FFF
:2053400080819181009709F400CEF901438150E070E060E0A7E0440F551F661F771FAA95B2
:20536000D1F7C480D12CF12CE12CBEE0CC0CDD1CEE1CFF1CBA95D1F74C295D296E297F2915
:205380002281422BC580D12CF12CE12C25E1CC0CDD1CEE1CFF1C2A95D1F74C295D296E297C
:2053A0007F29C680D12CF12CE12C33E0F594E794D794C7943A95D1F7CA94CD28CE28CF2824
:2053C00039F470956095509541955F4F6F4F7F4FDC015096CD90DD90ED90FC905397C41657
:2053E000D506E606F70609F474CFFC01408B518B628B738B6CCFB981B430F1F4802F90E0BD
:205400000196880F991FA80EB91EF50180819181009709F49ACDDC01ED91FC91D9011296AB
:205420002C91211105C00190F081E02D19958DCD0280F381E02DFACFB981B53009F087C076
:20544000202E312CF1013196EE0FFF1FE80FF91F808091808114910409F477CDF401448881
:2054600055886688778820E030E0A901C301B2010E94FA3C882309F45BC0A3019201C3019B
:20548000B2010E944D3E6B017C01D4015C966D917D918D919C915F979B01AC010E94963C72
:2054A0009B01AC01C701B6010E94FE3C0E94663D6B017C01D4011C962D913D914D915C913C
:2054C0001F9729833A834B835C8350962D913D914D915C9153972D833E834F83588720E0B7
:2054E00030E0A901C301B2010E94493E181654F5BFEFCB1ADB0AEB0AFB0A29813A814B8138
:205500005C81C20ED31EE41EF51E8D819E81AF81B8858C159D05AE05BF0551F0D401509688
:20552000CD92DD92ED92FC925397C4010E94FB0FF501E20DF31D10A241E0602FC5010E9476
:20554000641603CDC094D094E094F094D6CFB981B63071F4E02FF0E03196EE0FFF1FE80F6F
:20556000F91F80819181892B09F4EFCC40E0E5CFE981E83089F5D90115962C911597149628
:205580004C91149713966C91139712968C910E9428196B017C01802F90E00196880F991F9D
:2055A000A80EB91EF501008111810115110509F4CCCC20E030E0A901C701B6010E94FA3C83
:2055C00040E054E264E779E4882311F0B701A601C8010E942F21B9CCF981F93001F5D9010F
:2055E00015962C91159714964C91149713966C91139712968C910E942819AB01BC01802F55
:2056000090E00196880F991FA80EB91EF50180819181009709F499CC0E944D1196CCF981C9
:20562000F03209F053C0E02EF12C8701000F111F0A0D1B1DD80156968D919C91892B71F4D2
:20564000F50180A98F5F80AB85E190E00E94B440DC0154961C92F801978B868BF2E08F0E96
:20566000911C42E0D501AE0DBF1DBD016F5C7F4F2984421530F5D4018D914D01E82FF0E046
:205680003196EE0FFF1FEA0DFB1D2081318121153105A9F0FB0180818F5F8083D80156960E
:2056A000ED91FC9184898A3050F491E0980F948B90E0880F991FE80FF91F318320834F5FCA
:2056C000D7CFAE0CBF1CF50112A63FCCF981F13209F0A7C12DB63EB63C862B86202F30E02F
:2056E000FC01E20FF31F81E082A771A84DB65EB644E0749E4018510811240FB6F8945EBE67
:205700000FBE4DBE8DB79EB701969A8789878C01AC0162E070E0771609F456C0F401E60FFA
:20572000F11DC180D12CF12CE12CA7E0CC0CDD1CEE1CFF1CAA95D1F7828190E0B0E0A0E0EC
:20574000072E7EE0880F991FAA1FBB1F7A95D1F7702D8C299D29AE29BF29F0801C012D015B
:205760002F2872016101838190E0B0E0A0E0072E75E1880F991FAA1FBB1F7A95D1F7702D88
:205780008C299D29A429BF29C480D12CF12CE12CE3E0F594E794D794C794EA95D1F7CA943C
:2057A000CD28CE28CF2839F4B095A095909581959F4FAF4FBF4FFA0181939193A193B19380
:2057C000AF017F5F6B5FA7CF255F3F4F220F331FA20EB31ED5012D903C90F1017488610136
:2057E000812C412CB12CA12C912C7814E1F1D8016D917D918D919D918D01F601E190F19022
:205800006F01D7011C962D913D914D915C911F97621B730B840B950B97FF07C090958095C0
:20582000709561957F4F8F4F9F4F0E94993DF701208D318D428D538D0E94FE3C562E672E54
:205840007C01242D3B2D4A2D592D0E94493E181624F0542C6B2CEA2CF92C8394452CB62CEE
:20586000AE2C9F2CC2CF20E030E0A901642D7B2D8A2D992D0E94493E18160CF0CAC019820A
:20588000D10154968C915980581608F0C2C0052D10E0F801EE0FFF1FEE0FFF1F29853A85B0
:2058A000E20FF31FC080D180E280F380000F111F020D131DD8010D90BC91A02DBE83AD8300
:2058C0001C968D919D910D90BC91A02DA7019601281B390B4A0B5B0BCA01B9010E94993D95
:2058E000242D3B2D4A2D592D0E94FE3C562E672E782E892EED81FE8180899189A289B38929
:20590000C816D906EA06FB0639F0C08AD18AE28AF38ACF010E94FB0FF80100811181D801C1
:2059200054962D913D914D915C915797652D762D872D982D0E94FA3C882309F440C0D80131
:2059400058962D913D914D915C915B972D833E834F83588769017A01F7FAF094F7F8F09421
:20596000A7019601652D762D872D982D0E94FA3C87FD10C02D813E814F815885652D762DBF
:20598000872D982D0E94493E1816ECF0C52CD62CE72CF82C20E030E0A901C701B6010E9456
:2059A000FA3C811115C0F80114A215A216A217A2D8015496CD92DD92ED92FC925797B981AD
:2059C000BF5FB9835DCFCD80DE80EF80F884E2CFA701960160E074E284E799E40E94FE3C61
:2059E0009F770E946B3DD80194966D937D938D939C9397978824839420E030E0A901C70172
:205A0000B6010E94493E18160CF0812CF8018282CFCF2B843C840FB6F8943EBE0FBE2DBEC0
:205A200094CA2981233209F090CA802F90E0F501E80FF91F12A60B96880F991FA80EB91E5D
:205A4000D5018D919C91892B09F47FCA802F0E9452167BCA1F920F920FB60F9211240BB67F
:205A60000F922F933F934F935F936F937F938F939F93AF93BF93EF93FF938CEA95E00E9480
:205A8000EA05FF91EF91BF91AF919F918F917F916F915F914F913F912F910F900BBE0F90B0
:205AA0000FBE0F901F9018951F920F920FB60F9211240BB60F922F933F934F935F936F9365
:205AC0007F938F939F93AF93BF93EF93FF938CEA95E00E947005FF91EF91BF91AF919F91E6
:205AE0008F917F916F915F914F913F912F910F900BBE0F900FBE0F901F9018951F920F92F5
:205B00000FB60F9211240BB60F922F933F934F935F936F937F938F939F93AF93BF93EF93A2
:205B2000FF9389E496E00E94EA05FF91EF91BF91AF919F918F917F916F915F914F913F91BF
:205B40002F910F900BBE0F900FBE0F901F9018951F920F920FB60F9211240BB60F922F93A5
:205B60003F934F935F936F937F938F939F93AF93BF93EF93FF9389E496E00E947005FF91E5
:205B8000EF91BF91AF919F918F917F916F915F914F913F912F910F900BBE0F900FBE0F90C2
:205BA0001F9018951F920F920FB60F9211240BB60F922F933F934F935F936F937F938F939C
:205BC0009F93AF93BF93EF93FF9386EE96E00E94EA05FF91EF91BF91AF919F918F917F9170
:205BE0006F915F914F913F912F910F900BBE0F900FBE0F901F9018951F920F920FB60F92BE
:205C000011240BB60F922F933F934F935F936F937F938F939F93AF93BF93EF93FF9386EE01
:205C200096E00E947005FF91EF91BF91AF919F918F917F916F915F914F913F912F910F90D8
:205C40000BBE0F900FBE0F901F9018951F920F920FB60F9211240BB60F922F933F934F934F
:205C60005F936F937F938F939F93AF93BF93EF93FF9383E897E00E94EA05FF91EF91BF914F
:205C8000AF919F918F917F916F915F914F913F912F910F900BBE0F900FBE0F901F90189535
:205CA0001F920F920FB60F9211240BB60F922F933F934F935F936F937F938F939F93AF9383
:205CC000BF93EF93FF9383E897E00E947005FF91EF91BF91AF919F918F917F916F915F9175
:205CE0004F913F912F910F900BBE0F900FBE0F901F9018951F920F920FB60F9211242F93B6
:205D00003F938F939F93AF93BF938091570590915805A0915905B0915A053091560523E090
:205D2000230F2D3758F50196A11DB11D209356058093570590935805A0935905B0935A052D
:205D400080915B0590915C05A0915D05B0915E050196A11DB11D80935B0590935C05A093CC
:205D60005D05B0935E05BF91AF919F918F913F912F910F900FBE0F901F90189526E8230F04
:205D80000296A11DB11DD2CF1F920F920FB60F9211240BB60F922F933F934F935F936F9385
:205DA0007F938F939F93AF93BF93EF93FF93E0915F05F0916005309749F0A685B7858585A9
:205DC000968D91FF16C09C918923B1F4FF91EF91BF91AF919F918F917F916F915F914F91EC
:205DE0003F912F910F900BBE0F900FBE0F901F9018959C91892351F7A389B4899C9185897F
:205E0000809589238C93868997890197F1F7608D718DA685B785558538E020E0CB0101974B
:205E2000F1F7822F90E095958795282F4C91452309F02068315091F7868D81FD2095809196
:205E4000540590E001968F73992730915505381799F0A0915405B0E0AC5EBA4F2C9380932E
:205E60005405828D938D0197F1F7A389B4898C919589892B8C93AACF868D8160868FF1CF61
:205E80001F920F920FB60F9211240BB60F922F933F934F935F936F937F938F939F93AF93A1
:205EA000BF93EF93FF938091B900887F803609F44DC008F040C0883209F4A9C028F5803105
:205EC00009F49DC0C8F4882309F4FBC0883009F496C0FF91EF91BF91AF919F918F917F913E
:205EE0006F915F914F913F912F910F900BBE0F900FBE0F901F901895883109F488C08032C3
:205F000041F78093850514C0803409F49DC040F48033B9F38833E9F68093850585ECB0C01F
:205F2000803509F485C0883509F496C0883489F60E940509CECF883909F48CC038F58837DC
:205F400029F050F4883611F0803719F683E0809387051092130557C0883809F47BC08039DB
:205F600019F0803809F0B5CF80911305803208F071C0E091130581E08E0F8093130580911C
:205F8000BB00F0E0ED50FB4F80833DC0803B39F0E0F4803A09F479C0883A09F09ACF84E0BF
:205FA000809387051092F0041092EF04E091ED04F091EE0419958091EF0481110FC081E0CE
:205FC0008093EF041092CD0409C0803C09F4A6CF883C09F4A3CF883B09F07BCFE091F004B3
:205FE00081E08E0F8093F004F0E0E353FB4F80818093BB009091F0048091EF0429C080916A
:2060000062058093BB0085EC8093BC0062CF9091840580918305981758F5E091840581E040
:206020008E0F80938405F0E0ED59FA4F8081E9CFE091840581E08E0F809384058091BB00AF
:20604000F0E0ED59FA4F808390918405809183059817C8F285E8D8CFE091840581E08E0F26
:20606000809384058091BB00F0E0ED59FA4F80838091860581115CCF81E08093610584EAB5
:206080008093BC001092870524CF85EC8093BC001092870580911305803230F4E09113051A
:2060A000F0E0ED50FB4F10826091130570E0E091F104F091F20483EF94E019951092130573
:2060C00008CF1092850534CF1F920F920FB60F9211240BB60F922F933F934F935F936F9301
:2060E0007F938F939F93AF93BF93EF93FF9348E251E064E271E090E080E00E94680AFF912C
:20610000EF91BF91AF919F918F917F916F915F914F913F912F910F900BBE0F900FBE0F903C
:206120001F9018951F920F920FB60F9211240BB60F922F933F934F935F936F937F938F9316
:206140009F93AF93BF93EF93FF9348EA50E064EA70E083E090E00E94680AFF91EF91BF911E
:20616000AF919F918F917F916F915F914F913F912F910F900BBE0F900FBE0F901F90189550
:206180001F920F920FB60F9211240BB60F922F933F934F935F936F937F938F939F93AF939E
:2061A000BF93EF93FF9348E950E064E970E082E090E00E94680AFF91EF91BF91AF919F91C5
:2061C0008F917F916F915F914F913F912F910F900BBE0F900FBE0F901F9018951F920F920E
:2061E0000FB60F9211240BB60F922F933F934F935F936F937F938F939F93AF93BF93EF93BC
:20620000FF9348E850E064E870E081E090E00E94680AFF91EF91BF91AF919F918F917F910B
:206220006F915F914F913F912F910F900BBE0F900FBE0F901F9018950F931F93CF93DF9307
:20624000EC01162F042F1B821A8288EE93E0A0E0B0E08C839D83AE83BF838AE292E099830B
:2062600088831F8A1E8A198E188E1B8E1A8E1D8E1C8E6E8D6E7F6D7F6E8F6695617081E0D1
:206280006827842F0E94270761E0802F0E945407802F90E0FC01E05CFD4FE491E88BFC0176
:2062A000E650FE4FE491F0E0EE0FFF1FE052FE4F859194919A8B898B60E0812F0E9454071B
:2062C0008E8D81FD04C061E0812F0E9427071C87812F90E0FC01E05CFD4FE491ED87FC0172
:2062E000E650FE4FE491F0E0EE0FFF1FEA53FE4F859194919F878E87DF91CF911F910F919B
:206300000895ECEAF5E01382128288EE93E0A0E0B0E084839583A683B7832CE332E03183BC
:20632000208345E351E05587448744E351E05787468740E351E0518B408B41E351E0538B89
:20634000428B42E351E0558B448B46E351E0578B468B118E128E138E148EE9E4F6E01382A4
:20636000128284839583A683B7833183208345ED50E05587448744ED50E05787468740ED6E
:2063800050E0518B408B41ED50E0538B428B42ED50E0558B448B46ED50E0578B468B118E5A
:2063A000128E138E148EE6EEF6E01382128284839583A683B783318320834DEC50E0558709
:2063C00044874CEC50E05787468748EC50E0518B408B49EC50E0538B428B4AEC50E0558B7E
:2063E000448B4EEC50E0578B468B118E128E138E148EE3E8F7E01382128284839583A6831C
:20640000B7833183208325EC30E03587248724EC30E03787268720EC30E0318B208B21EC48
:2064200030E0338B228B22EC30E0358B248B26EC30E0378B268B118E128E138E148EE0E27B
:20644000F8E01382128284839583A683B7838EE492E091838083ECE2F8E01082128211825F
:20646000E7E3F8E0128214821382109269090E949C01EFE1FEE088EA92E091838083F0933C
:206480006B09E0936A098DE695E190935C0980935B09EDE1FEE08CE992E091838083F0938D
:2064A0003608E09335088AE094E190935809809357098BEE93E19093600980935F09E9E15A
:2064C000FEE080E992E091838083F0933408E0933308138212828BE096E190935A098093DB
:2064E000590984E892E09093180E8093170E88EF96E19093560980935509E5EBFDE080EFDE
:2065000092E091838083F093B40DE093B30D84EE92E09093660D8093650D1092AF0D8FEFA0
:206520008093B00D1092B20D1092B10D28ED32E03093620A2093610A2CEC32E03093530A0C
:206540002093520A20EC32E030931D0A20931C0AEDE9F9E028E732E0318320831092150A63
:206560001092140A1092170A1092160A1092190A1092180A10921B0A10921A0A82A3EEE7C6
:20658000F9E08CE692E091838083F0933208E09331088AE099E190935E0980935D0985EF63
:2065A00098E19093660980936509168EE8E7F9E080E692E091838083F0933008E0932F08AF
:2065C000138212821582148281E892E1909368098093670984EB92E090936D0980936C0970
:2065E0000895CF93DF9300D01F92CDB7DEB7789484B5826084BD84B5816084BD85B58260B1
:2066000085BD85B5816085BD80916E00816080936E001092810080918100826080938100CF
:2066200080918100816080938100809180008160809380008091B10084608093B1008091D3
:20664000B00081608093B000809191008260809391008091910081608093910080919000F6
:206660008160809390008091A10082608093A1008091A10081608093A1008091A000816075
:206680008093A000809121018260809321018091210181608093210180912001816080938E
:2066A000200180917A00846080937A0080917A00826080937A0080917A00816080937A00CA
:2066C00080917A00806880937A001092C10082E28093390880913A0890913B080E945041B5
:2066E00020903908422C512CC20101960E94B44090933B0880933A08F201E80FF91F10827F
:2067000022E0DC012C932AE011962C93A2014250510964EF73E002960E94D9418FE19EE0F4
:206720000E94D4038DE19EE00E94D40389E19EE00E94D40387E19EE00E94D40385EB9DE0CE
:206740000E94D40385E69DE00E94D40381E69AE00E94D40382E59AE00E94D4038CE19AE0C4
:206760000E94D4038DE999E00E94D4038CE699E00E94D40388E799E00E94D4038AED92E189
:20678000909362098093610940E051EE60E070E083E897E00E94740383E897E090933808BF
:2067A0008093370880916909811153C061E08DE00E94540762ED70E080E090E00E94DD07BF
:2067C00061E08DE00E94270768E270E080E090E00E94DD0760E08DE00E94270762ED70E02F
:2067E00080E090E00E94DD0761E08DE00E94270768E270E080E090E00E94DD0760E08DE028
:206800000E9427076AEF70E080E090E00E94DD070AE0098362ED70E080E090E00E94DD073E
:2068200061E08DE00E94270768E270E080E090E00E94DD0760E08DE00E9427071981115072
:2068400019831111E7CF6DE770E080E090E00E94DD070E94BC018091390881110E941F02C4
:206860008FEF0E9462028091210E882309F444C02090330E2B8222FC30C419821B8113FFAF
:2068800008C083E00E94FF06892B19F00981086009831B8114FF08C084E00E94FF06892BB5
:2068A00019F00981006109831B8115FF08C085E00E94FF06892B19F00981006209831B8103
:2068C00016FF08C086E00E94FF06892B19F00981006409831B8117FF08C087E00E94FF060F
:2068E000892B19F009810068098320E0498160E08FE19EE00E942A158091220E882309F49B
:2069000064C01091340E1B83117019832B8020FE08C088E00E94FF0601E00983892B09F4F7
:2069200019821B8111FF08C089E00E94FF06892B19F00981026009831B8112FF08C08AE024
